:100000000C940B0F0C943C0F0C943C0F0C943C0F75
:100010000C943C0F0C943C0F0C943C0F0C943C0F34
:100020000C943C0F0C943C0F0C943C0F0C943C0F24
:100030000C943C0F0C943C0F0C943C0F0C943C0F14
:100040000C943C0F0C940D270C943C0F0C943C0F1B
:100050000C943C0F0C943C0F0C947B7D0C949A45B3
:100060000C943C0F0C948A580C943C0F0C943C0F4D
:100070000C943C0F0C943C0F0C943C0F0C943C0FD4
:100080000C943C0F0C943C0F0C943C0F0C943C0FC4
:100090000C943C0F0C943C0F0C943C0F0C943C0FB4
:1000A0000C943C0F0C943C0F0C943C0F0C943C0FA4
:1000B0000C943C0F0C943C0F0C943C0F0C943C0F94
:1000C0000C943C0F0C943C0F0C943C0F0C943C0F84
:1000D0000C943C0F0C943C0F0C943C0F0C943C0F74
:1000E0000C943C0FBD58C358D458DF58E758FD58FE
:1000F000EB58FD58EF58F358FD58F9586F77727761
:10010000617765776B77A97776777A778077847769
:1001100088778E7792779677A9779C77A077A47760
:10012000A17CA67CAB7CB57CBF7C387DC97CD17CB6
:10013000D97CE37CED7CF77C067D107D387D1A7DD3
:10014000247D2E7D084AD73B3BCE016E84BCBFFD8B
:10015000C12F3D6C74319ABD56833DDA3D00C77F97
:1001600011BED9E4BB4C3E916BAAAABE0000008030
:100170003F05A84CCDB2D44EB93836A9020C50B9BF
:10018000918688083CA6AAAA2ABE000000803F00EB
:100190004E414E494E495459494E46CDCCCC3D0A6C
:1001A000D7233C17B7D13877CC2B329595E6241F4F
:1001B000B14F0A000020410000C84200401C462008
:1001C000BCBE4CCA1B0E5AAEC59D74434F4D4D5517
:1001D0004E49434154494F4E0044525952554E00E6
:1001E0004552524F525300494E464F004543484FE7
:1001F0000047322F47332062616420706172616D65
:1002000065746572730A00456E642066696C6520CA
:100210006C6973740A00426567696E2066696C6573
:10022000206C6973740A004D31323500286E6F20DE
:1002300066696C6529005344207072696E74696E3A
:1002400067206279746520004E6F742053442070DB
:1002500072696E74696E670A0043757272656E74B6
:100260002066696C653A200046696C652064656C9F
:10027000657465643A0044656C6574696F6E2066E8
:1002800061696C65642C2046696C653A20002569BB
:10029000730025696D20256973002569682025692B
:1002A0006D2025697300256964202569682025690A
:1002B0006D202569730025697920256964202569E9
:1002C000682025696D20256973005072696E74205D
:1002D00074696D653A2000EC01E701E001D901CBBA
:1002E000016F66660044454255473A004D3131334F
:1002F0002053006F6B002C20002C200054484552E6
:100300004D414C5F50524F54454354494F4E00416C
:1003100055544F5245504F52545F53445F535441CC
:1003200054555300454D455247454E43595F504142
:100330005253455200434153455F4C494748545F2F
:100340004252494748544E45535300544F47474C37
:10035000455F4C494748545300534F465457415208
:10036000455F504F574552004255494C445F5045F8
:100370005243454E54004C4556454C494E475F4408
:10038000415441005A5F50524F4245004155544F2D
:100390004C4556454C005052494E545F4A4F42001E
:1003A00050524F4752455353004155544F524550B8
:1003B0004F52545F54454D5000564F4C554D455487
:1003C00052494300454550524F4D00534552494113
:1003D0004C5F584F4E5F584F4646004649524D5766
:1003E0004152455F4E414D453A4D61726C696E20F8
:1003F00020284769746875622920534F5552434538
:100400005F434F44455F55524C3A68747470733A79
:100410002F2F6769746875622E636F6D2F4D61723F
:100420006C696E4669726D776172652F4D61726C91
:10043000696E2050524F544F434F4C5F56455253B4
:10044000494F4E3A312E30204D414348494E455F89
:10045000545950453A46422D546F726E61646F2074
:10046000322045585452554445525F434F554E54DF
:100470003A3120555549443A6365646532613266C4
:100480002D343161322D343734382D396231322DEB
:100490006335356336326633363766660A002F2F8A
:1004A0002000205400205200416363656C65726136
:1004B00074696F6E3A205000546F6F20666172202D
:1004C00066726F6D207265666572656E6365207019
:1004D0006F696E740A00205A0020590058002020CD
:1004E0004D61783A2000205A002059005800202001
:1004F0004D696E3A20004F6E20004F666600536FC4
:10050000667420656E6473746F70733A20002046C1
:100510006C6F773A2000000136372603FFFFFF3B60
:100520003C3D3802FFFFFF3F2E303E12FFFFFFFF32
:1005300028FF0C080907FFFF1A1C18FFFF2A0844B0
:100540000AFF4320643A0020693A0020703A0049CB
:100550006E76616C69642065787472756465720A80
:100560000043290A0061626C656420286D696E2071
:1005700074656D702000436F6C64206578747275CB
:100580006465732061726520004E6F20636173653E
:10059000206C696768740A00454550524F4D204FE2
:1005A0004B0A0041637469766520457874727564FE
:1005B00065723A2000496E76616C696420657874D2
:1005C00072756465720A0024F4D43050C38E20C260
:1005D000A24017828B7011127A910D816CD90AA8F2
:1005E00061E108C7586607615143061E4B5D05C1AE
:1005F00045A7041A411104093D980371393103409C
:1006000036DB0265339102D4305402802E1D026322
:100610002CEE01752AC501B028A001102781018F99
:100620002564012B244B01E0223401AC211F018DF4
:10063000200D01801FFC00841EED00971DDF00B817
:100640001CD200E61BC600201BBC00641AB200B21C
:1006500019A8000A19A0006A189900D11791004042
:10066000178B00B516840031167E00B31579003A59
:10067000157300C7146F0058146A00EE13660088E3
:1006800013630025135E00C7125B006C1257001540
:10069000125400C111510070114F0021114B00D6AE
:1006A0001049008D1047004610440002104200C05F
:1006B0000F4000800F3E00420F3C00060F3B00CB76
:1006C0000E3800930E37005C0E3500270E3400F311
:1006D0000D3200C10D3100900D3000600D2E003242
:1006E0000D2D00050D2C00D90C2B00AE0C2900851A
:1006F0000C29005C0C2700350C27000E0C2600E8A6
:100700000B2400C40B2400A00B23007D0B23005AF4
:100710000B2100390B2100180B2000F80A1F00D90B
:100720000A1E00BB0A1E009D0A1D00800A1D0063F0
:100730000A1C00470A1B002C0A1B00110A1A00F7AA
:10074000091A00DD091900C4091900AB0919009242
:100750000917007B091800630917004C09160036B9
:10076000091600200916000A091500F5081500E011
:10077000081400CC081400B8081400A40814009051
:100780000813007D0812006B081300580812004679
:10079000081200340811002308110012081100018A
:1007A000081100F0071000E0071000D0071000C08B
:1007B000071000B0070F00A107100091070E00837B
:1007C000070F0074070F0065070E0057070E00495A
:1007D000070E003B070D002E070E0020070D00132B
:1007E000070D0006070D00F9060C00ED060D00E0F0
:1007F000060C00D4060C00C8060C00BC060C00B0A9
:10080000060C00A4060B0099060C008D060B008256
:10081000060B0077060B006C060B0061060A0057FA
:10082000060B004C060A0042060A0038060A002E93
:10083000060A0024060A001A060A00100609000724
:10084000060A00FD050900F4050900EB050900E2B0
:10085000050900D9050900D0050900C7050900BE32
:10086000050900B5050800AD050800A50509009CAF
:10087000050800940508008C050800840508007C24
:10088000050800740508006C050700650508005D93
:10089000050700560508004E0507004705070040FC
:1008A00005080038050700310507002A0507002361
:1008B0000507001C050600160507000F05070008C0
:1008C00005060002050700FB040600F5040700EE1C
:1008D000040600E8040600E2040700DB040600D575
:1008E000040600CF040600C9040600C3040600BDC8
:1008F000040600B7040600B1040500AC040600A617
:10090000040600A00405009B040600950405009061
:100910000406008A04050085040500800406007AA8
:1009200004050075040500700405006B04050066ED
:10093000040500610405005C04050057040500522D
:100940000405004D04050048040500430405003E6D
:100950000404003A04050035040500300404002CAA
:1009600004050027040400230405001E0404001AE3
:1009700004040016040500110404000D0404000919
:100980000405000404040000040400FC030400F84F
:10099000030400F4030400F0030400EC030400E883
:1009A000030400E4030400E0030400DC030400D8B3
:1009B000030400D4030400D0030400CC030400C8E3
:1009C000030300C503030024F404D9201BC40C5CFA
:1009D0000E9804C4095F0265077101F405F900FB74
:1009E00004B30048048700C103690058035500039D
:1009F000034500BE023A008402310053022A002956
:100A000002250004022000E4011C00C8011900AF07
:100A10000117009801140084011300710110006196
:100A200001100051010E0043010D0036010B002B97
:100A3000010B0020010B00150109000C0109000346
:100A4000010800FB000800F3000800EB000700E4C9
:100A5000000600DE000600D8000600D2000600CC2A
:100A6000000500C7000500C2000500BD000400B974
:100A7000000400B5000400B1000400AD000400A9AA
:100A8000000400A5000300A20003009F0004009BD7
:100A900000030098000300950002009300030090FB
:100AA0000003008D0002008B000300880002008616
:100AB00000020084000300810002007F0002007D2C
:100AC0000002007B0002007900020077000100763E
:100AD0000002007400020072000100710002006F49
:100AE0000002006D0001006C0002006A0001006954
:100AF000000200670001006600010065000100645B
:100B00000002006200010061000100600001005F5E
:100B10000002005D0001005C0001005B0001005A62
:100B20000001005900010058000100570001005663
:100B30000001005500010054000100530000005363
:100B40000001005200010051000100500001004F5F
:100B50000001004E0000004E0001004D0001004C5D
:100B60000001004B0000004B0001004A0001004959
:100B70000001004800000048000100470001004655
:100B8000000000460001004500000045000100444F
:100B90000001004300000043000100420000004249
:100BA0000001004100000041000100400001003F41
:100BB0000000003F0001003E0000003E0001003D3B
:100BC0000000003D0001003C0000003C0000003C33
:100BD0000001003B0000003B0001003A0000003A29
:100BE0000001003900000039000100380000003821
:100BF0000000003800010037000000370001003617
:100C0000000000360000003600010035000000350D
:100C10000000003500010034000000340000003402
:100C200000010033000000330000003300010032F7
:100C300000000032000000320001003100000031ED
:100C400000000031000100300000003000000030E2
:100C50000001002F0000002F0000002F0000002FD7
:100C60000001002E0000002E0000002E0001002DCB
:100C70000000002D0000002D0000002D0001002CC0
:100C80000000002C0000002C0000002C0001002BB4
:100C90000000002B0000002B0000002B0001002AA8
:100CA0000000002A0000002A0000002A000100299C
:100CB0000000002900000029000000290000002990
:100CC0000001002800000028000000280000002883
:100CD0000000002800010027000000270000002776
:100CE0000000002700000027000100260000002669
:100CF000000000260000002600000026000100255C
:100D0000000000250000002500000025000000254F
:100D10000000002500010024000000240000002441
:100D20000000002400000024000100230000002334
:100D30000000002300000023000000230000002327
:100D40000000002300010022000000220000002219
:100D5000000000220000002200000022000100210B
:100D600000000021000000210000002100000021FF
:100D700000000021000000210001002000000020F0
:100D800000000020000000200000002000000020E3
:100D900000000020000000200001001F0000001FD4
:100DA0000000001F0000001F0000001F0000001FC7
:100DB0000000001F0001001E0000001E0000001EB9
:100DC0000000001E000000043700001E2900005132
:100DD0001B00005810000010090000CC040000782F
:100DE00002000041010000486F6D696E6720666176
:100DF000696C65640050726F74656374656420503B
:100E0000696E0A0020573A0020573A00205A3A00EB
:100E100020593A0020436F756E7420583A002045DF
:100E20003A00205A3A0020593A00583A003A004312
:100E300061703A0023646566696E652044454641E9
:100E4000554C545F4B64200023646566696E6520D1
:100E500044454641554C545F4B6920002364656608
:100E6000696E652044454641554C545F4B702000E7
:100E7000504944204175746F74756E652066696EC3
:100E80006973686564212050757420746865206CEE
:100E9000617374204B702C204B6920616E64204B71
:100EA0006420636F6E7374616E74732066726F6D0D
:100EB0002062656C6F7720696E746F20436F6E6679
:100EC000696775726174696F6E2E680A00504944D3
:100ED000204175746F74756E65206661696C656418
:100EE000212074696D656F75740A0045312054487E
:100EF00045524D414C2052554E415741590054687E
:100F000065726D616C2052756E6177617900453153
:100F10002048656174696E67206661696C6564006C
:100F200048656174696E67206661696C656400502C
:100F30004944204175746F74756E65206661696CF3
:100F40006564212054656D706572617475726520E9
:100F5000746F6F20686967680A00204B643A20004C
:100F6000204B693A2000204B703A20000A20436C45
:100F7000617373696320504944200A002054753A14
:100F80002000204B753A2000206D61783A20002027
:100F90006D696E3A200020643A2000206269617316
:100FA0003A2000504944204175746F74756E652075
:100FB0006661696C656421204261642065787472A1
:100FC00075646572206E756D6265720A00504944E1
:100FD000204175746F74756E652073746172740A44
:100FE00000496E736572742066696C616D656E741C
:100FF00020616E642073656E64204D3130380A00C4
:1010000053656E64204D31303820746F20686561FF
:1010100074206E6F7A7A6C650A00496E736572741B
:101020002066696C616D656E7420616E64207072FB
:1010300065737320627574746F6E20286F72204D13
:10104000313038290A0048617264636F6465642036
:1010500044656661756C742053657474696E67735A
:10106000204C6F616465640A00E8030000E8030037
:1010700000C8000000102700000000964300009602
:10108000430000A0400000C8410000C8420000C862
:10109000420000C8430000BC4220286D6D2900209A
:1010A000204D36303320002055004C0046696C61DD
:1010B0006D656E74206C6F61642F756E6C6F61640A
:1010C000206C656E677468733A0A002044002049FA
:1010D0000020204D333031205000504944207365AA
:1010E0007474696E67733A0A00205A002059002010
:1010F000204D323036205800486F6D65206F66668F
:101100007365743A0A00204500205A0020590020D7
:10111000580020540020530020204D3230352051FB
:101120000020453C6D61785F655F6A65726B3E00CB
:1011300020583C6D61785F785F6A65726B3E20591C
:101140003C6D61785F795F6A65726B3E205A3C6DD9
:1011500061785F7A5F6A65726B3E00416476616EAA
:101160006365643A20513C6D696E5F7365676D65B8
:101170006E745F74696D655F75733E20533C6D6975
:101180006E5F66656564726174653E20543C6D698E
:101190006E5F74726176656C5F66656564726174BA
:1011A000653E0020540020520020204D3230342073
:1011B0005000416363656C65726174696F6E2028CD
:1011C000756E6974732F7332293A20503C707269BE
:1011D0006E745F616363656C3E20523C726574722D
:1011E0006163745F616363656C3E20543C7472613B
:1011F00076656C5F616363656C3E0A002045002084
:101200005A0020590020204D3230312058004D61C5
:1012100078696D756D20416363656C657261746991
:101220006F6E2028756E6974732F7332293A0A0025
:10123000204500205A0020590020204D3230332014
:1012400058004D6178696D756D20666565647261E1
:101250007465732028756E6974732F73293A0A00B8
:10126000204500205A0020590020204D39322058B6
:101270000053746570732070657220756E69743ADE
:101280000A0020204D3230302044300A0020204D0A
:101290003230302044002044697361626C65640A16
:1012A0000046696C616D656E742073657474696E57
:1012B00067733A002020473231202020203B005421
:1012C0005249474745524544006F70656E003A20C9
:1012D0000066696C616D656E74007A5F6D696E00A1
:1012E000795F6D696E00785F6D696E005265706F31
:1012F0007274696E6720656E6473746F70207374A6
:10130000617475730A0070012C0190012701B0010E
:101310002201C0011D01F001180110021301300269
:101320000E016002090190020401C002FF000003E7
:10133000FA004003F5008003F000D003EB00200426
:10134000E6007004E100E004DC004005D700C005C1
:10135000D2004006CD00D006C8008007C300300888
:10136000BE00F008B900C009B400B00AAF00B00B6D
:10137000AA00D00CA500000EA000500F9B00C010CA
:1013800096005012910000148C00C0158700B01711
:101390008200B0197D00D01B7800001E7300402031
:1013A0006E0090226900F024640040275F009029BD
:1013B0005A00E02B5500102E500020304B00103208
:1013C0004600E033410090353C001037370070385C
:1013D0003200A0392D00B03A2800A03B2300603C29
:1013E0001E00103D1900903D1400103E0F00703E8D
:1013F0000A00C03E0500003F0000403FFBFF803F69
:10140000F6FFC03FF1FF202F002042403A0020406D
:101410003A002020506C616E6E657242756666659A
:101420007242797465733A20002046726565204DDA
:10143000656D6F72793A2000436F6D70696C6564F9
:101440003A204E6F7620313920323031380A002070
:101450007C20417574686F723A205061766C6F2001
:101460005A766F7A646574736B79690A0032303129
:10147000382D30382D303100204C61737420557078
:1014800064617465643A20000A004D61726C696E93
:101490000020536F667477617265205265736574BE
:1014A0000A00205761746368646F67205265736532
:1014B000740A002042726F776E206F757420526537
:1014C0007365740A002045787465726E616C2052F1
:1014D000657365740A00506F77657255700A007302
:1014E000746172740A004D3234004D32332025731A
:1014F000006175746F25692E67006572726F7220C6
:1015000077726974696E6720746F2066696C650A0A
:1015100000205A3A0020593A0020583A00656E647B
:1015200073746F7073206869743A2000446F6E653D
:1015300020736176696E672066696C652E0A004DBE
:10154000323900454550524F4D20646174617369D2
:101550007A65206572726F722E0A00290A00206275
:10156000797465733B2063726320005365747469FA
:101570006E67732053746F726564202800290A0017
:101580002062797465733B2063726320002073745A
:101590006F7265642073657474696E677320726519
:1015A00074726965766564202800202863616C6325
:1015B000756C6174656429210A0020213D20004575
:1015C0004550524F4D20435243206D69736D6174F5
:1015D0006368202D202873746F72656429200020B1
:1015E00053697A653A2000496E6465783A20002094
:1015F0004D61726C696E3D563535290A00284545A6
:1016000050524F4D3D00454550524F4D207665722A
:1016100073696F6E206D69736D617463682000502B
:1016200072696E7465722073746F70706564206483
:10163000756520746F206572726F72732E20466913
:101640007820746865206572726F7220616E642004
:10165000757365204D39393920746F207265737444
:101660006172742E202854656D7065726174757294
:10167000652069732072657365742E20536574202C
:101680006974206166746572207265737461727426
:10169000696E67290A004E6F20436865636B737536
:1016A0006D2077697468206C696E65206E756D6257
:1016B00065722C204C617374204C696E653A200071
:1016C0004E6F20436865636B73756D20776974682E
:1016D000206C696E65206E756D6265722C204C61A0
:1016E0007374204C696E653A2000636865636B73A0
:1016F000756D206D69736D617463682C204C617326
:1017000074204C696E653A20004C696E65204E75F8
:101710006D626572206973206E6F74204C61737402
:10172000204C696E65204E756D6265722B312C20E0
:101730004C617374204C696E653A20004D31313034
:10174000004D33310053442072656164206572722C
:101750006F720A00446F6E65207072696E74696EF4
:10176000672066696C650A0020496E76616C696461
:1017700020657874727564657220000000000000B6
:101780000000000000000000006643000066430007
:101790000066432066697273740A005A0059005843
:1017A00000486F6D65200020746F6F206C6F6E674E
:1017B00020657874727573696F6E207072657665D6
:1017C0006E7465640A0020636F6C642065787472BF
:1017D0007573696F6E2070726576656E7465640AE4
:1017E000007C3C3E5E2B3D3F2F5B5D3B2C2A225C08
:1017F00000526573656E643A20006F6B0020746F51
:101800006F206C6F6E6720657874727573696F6E88
:101810002070726576656E7465640A0020636F6C73
:101820006420657874727573696F6E207072657666
:10183000656E7465640A00627573793A207061752B
:1018400073656420666F7220696E7075740A006239
:101850007573793A2070617573656420666F7220C4
:10186000757365720A00627573793A2070726F63DE
:10187000657373696E670A004B494C4C45442E20D2
:10188000004B494C4C20636175736564206279207C
:10189000746F6F206D75636820696E61637469761B
:1018A000652074696D65202D2063757272656E7494
:1018B00020636F6D6D616E643A20004368616E67EE
:1018C000652066696C616D656E740A004D36303056
:1018D000005072696E7465722068616C7465642E64
:1018E000206B696C6C28292063616C6C6564210A2B
:1018F00000656E7175657565696E67202200000070
:10190000000000000000000000000000484200004D
:10191000484200008040000000005761726E696E0E
:10192000673A20486F6D696E672042756D7020447C
:10193000697669736F72203C20310A00020204004C
:1019400000A0400000A040000000400000664300EE
:1019500000664300006643FFFFFF486F74656E64D6
:1019600020746F6F20636F6C640A00486F74656E3B
:101970006420746F6F20636F6C640A0000002100A4
:10198000240027002A002D00300033000101000050
:10199000040107010A0100002200250028002B0095
:1019A0002E003100340002010000050108010B0186
:1019B000000020002300260029002C002F00320008
:1019C00000010000030106010901050505050705E1
:1019D00008080808020202020A0A080804040404AB
:1019E00001010101010101010303030303030303D7
:1019F000040707070C0C0C0C0C0C0C0C0202020266
:101A000006060606060606060B0B0B0B0B0B0B0B4E
:101A10000102102020080810204010204080020100
:101A200002010804020101020408102040808040E5
:101A300020100804020180040201804020100804E4
:101A40000201080402010102040810204080010282
:101A500004081020408000000A0B02090C0D0E083B
:101A60000703040100000000000000000000000067
:101A70000000000000000000000000000000000066
:101A80000000121110000000000000000000000023
:101A9000000000000000000000000000556E6B6EAA
:101AA0006F776E20636F6D6D616E643A202200491E
:101AB0006E736572742066696C616D656E74206109
:101AC0006E6420707265737320627574746F6E201B
:101AD000286F72204D313038290A00534420636149
:101AE0007264206F6B0A006F70656E526F6F7420A6
:101AF0006661696C65640A00766F6C756D652E6948
:101B00006E6974206661696C65640A0053442069DB
:101B10006E6974206661696C0A006265640A002C53
:101B20002073797374656D2073746F7070656421B0
:101B3000204865617465725F49443A200045312050
:101B4000544845524D414C2052554E415741590041
:101B5000546865726D616C2052756E6177617900B1
:101B600045312048656174696E67206661696C65FE
:101B7000640048656174696E67206661696C6564BC
:101B8000004B494C4C45442E20001000AA03F001A4
:101B90003A019002220130031001D00302017004C7
:101BA000F7001005ED00B005E5005006DD00F00679
:101BB000D7009007D1003008CC00D008C7007009CA
:101BC000C300100ABE00B00ABB00500BB700F00BF8
:101BD000B300900CB000D00DAA00100FA50050105B
:101BE000A00090119B00D0129600B01490009016A7
:101BF0008B0070188500501A8000301C7B00B01ECE
:101C0000750030216F00B023690030266400102871
:101C10005F00902A5A00702C5500F02E4F00703152
:101C20004800B0324500F0334100703639001037BB
:101C300037005038330090392D00D03A2700B03C9F
:101C40001C00503D1700F03D1100903E0900D03FB0
:101C5000E5FF4531204572723A204D415854454DBB
:101C600050004572723A204D415854454D50204223
:101C70004544004D415854454D5020747269676782
:101C800065726564004531204572723A204D494EB7
:101C900054454D50004572723A204D494E54454DC1
:101CA0005020424544004D494E54454D50207472D9
:101CB00069676765726564004D3834205820592083
:101CC0005A2045004572726F722077726974696E8E
:101CD0006720746F20454550524F4D210A006F70A8
:101CE000656E206661696C65642C2046696C653A96
:101CF000200043616E6E6F74206F70656E20737587
:101D00006264697220006563686F3A005772697493
:101D1000696E6720746F2066696C653A20006F7089
:101D2000656E206661696C65642C2046696C653A55
:101D300020006F70656E206661696C65642C2046BA
:101D4000696C653A200046696C652073656C656353
:101D50007465640A002053697A653A200046696C0C
:101D600065206F70656E65643A20002066696C6559
:101D70003A2000646F696E67006672657368004E92
:101D80006F772000454E4420535542524F555449D9
:101D90004E450A002220706F730022207061726528
:101DA0006E743A2200535542524F5554494E4520C5
:101DB00043414C4C207461726765743A22004B4970
:101DC0004C4C45442E2000747279696E6720746F04
:101DD0002063616C6C207375622D67636F6465208E
:101DE00066696C6573207769746820746F6F206D05
:101DF000616E79206C6576656C732E204D4158209C
:101E00006C6576656C2069733A004572726F723A40
:101E10000000E994C89411241FBECFEFD1E2DEBFC9
:101E2000CDBF00E00CBF12E0A0E0B2E0E0E5F2E4DC
:101E300001E00BBF02C007900D92A63FB107D9F792
:101E400021E1A6EFB2E001C01D92AA36B207E1F788
:101E50001FE0CAE0DFE000E006C021970109802F03
:101E6000FE010E948CA0C930D10780E00807A9F7C5
:101E70000E941E900C9417A10C9400002F923F9288
:101E80004F925F926F927F928F929F92AF92BF928A
:101E9000CF92DF92EF92FF920F931F93CF93DF9336
:101EA000CDB7DEB7CF55D1090FB6F894DEBF0FBE60
:101EB000CDBF91E09093EC0B809163118D3409F4C8
:101EC00056C6843511F40C945A24873411F00C94BE
:101ED0009E24209061113090621124E0221631047A
:101EE00009F44FC54CF437FC3EC680913C0242E0F9
:101EF00024163104A4F52EC05AE52516310409F440
:101F0000BEC55CF49BE12916310409F470C5ACE14F
:101F10002A16310409F497C526C6BBE52B163104F1
:101F200009F4B1C5ECE52E16310409F01CC6E0E455
:101F30002E2EE2E03E2EFFEBEF2EFBE0FF2EE3E045
:101F4000FCE0FDA7ECA7A6EFCA2EA2E0DA2E00E087
:101F500010E0D8C581110C94A5240C94A0248823EA
:101F600011F40C94A0240E94E73A82E50E94B25436
:101F7000882309F436C10E9436544B015C0120E0ED
:101F800030E0A9010E946E99882309F456C120917E
:101F9000030C3091040C4091050C5091060C2CA7B9
:101FA0003DA74EA75FA78091070C9091080CA091C8
:101FB000090CB0910A0C88AB99ABAAABBBAB2091D2
:101FC000F30B3091F40B4091F50B5091F60B2CAFC5
:101FD0003DAF4EAF5FAF8091F70B9091F80BA091A2
:101FE000F90BB091FA0B88AF99AFAAAFBBAF6CA554
:101FF0007DA58EA59FA50E946E9981110DC028AD6B
:1020000039AD4AAD5BAD68A979A98AA99BA90E949F
:102010006E99882309F411C111E092E02916310468
:1020200009F010E020E030E0A901C501B4010E94F0
:102030006E99881F8827881F181759F020E030E014
:1020400040E85FEB28962CAF3DAF4EAF5FAF2897CF
:102050000AC080E090E0A0E8BFE328968CAF9DAF77
:10206000AEAFBFAF28972CA53DA54EA55FA56CAD23
:102070007DAD8EAD9FAD0E94979D24966CAF7DAFD8
:102080008EAF9FAF249728A939A94AA95BA968AD4B
:1020900079AD8AAD9BAD0E94979D6B017C01249622
:1020A0002CAD3DAD4EAD5FAD2497CA01B9010E9484
:1020B000D3992B013C01A7019601C701B6010E94EB
:1020C000D3999B01AC01C301B2010E94989D0E946B
:1020D00003A06CAB7DAB8EAB9FAB20E030E040E06B
:1020E0005FE30E94D3992B013C01A5019401C50136
:1020F000B4010E94D3994B015C01A3019201C30179
:10210000B2010E94D3999B01AC01C501B4010E94A8
:10211000979D0E9403A028962CAD3DAD4EAD5FADBE
:1021200028970E94D3994B015C01C701B6019058D2
:102130002CA93DA94EA95FA90E94749EA5019401F6
:102140000E94D3996B017C012CAD3DAD4EAD5FADCE
:102150006CA57DA58EA59FA50E94989D20E030E0EE
:1021600040E05FE30E94D3999B01AC01C701B60137
:102170000E94989D2CA53DA54EA55FA50E94979D08
:102180006B017C0128AD39AD4AAD5BAD68A979A979
:102190008AA99BA90E94989D20E030E040E05FE37F
:1021A0000E94D3992B013C012CA93DA94EA95FA9FE
:1021B00024966CAD7DAD8EAD9FAD24970E94749E2C
:1021C000A50194010E94D3999B01AC01C301B20106
:1021D0000E94989D28A939A94AA95BA90E94979DA8
:1021E00014C089E40E94B254882329F00E94365416
:1021F0006B017C0103C0C12CD12C76018AE40E94C2
:10220000B2548823E9F00E9436546CAF7DAF8EAF94
:102210009FAF20E030E0A901C701B6010E946E998E
:1022200081111BC020E030E0A9016CAD7DAD8EAD09
:102230009FAD0E946E99811110C0EAE0FEE18DC34E
:1022400020E030E0A901C701B6010E946E99882301
:10225000A1F31CAE1DAE1EAE1FAEA70196015058D5
:102260002CA73DA74EA75FA78CAD9DADAEADBFAD72
:10227000B05888AB99ABAAABBBABCA01B9010E94FD
:10228000D3994B015C0128A939A94AA95BA9CA01C4
:10229000B9010E94D3999B01AC01C501B4010E9410
:1022A000989D0E9403A064966CAF7DAF8EAF9FAFE8
:1022B00064972091030C3091040C4091050C5091CF
:1022C000060C28AF39AF4AAF5BAFA701960168ADE6
:1022D00079AD8AAD9BAD0E94989D28966CAF7DAF7D
:1022E0008EAF9FAF28978091070C9091080CA0911A
:1022F000090CB0910A0C24968CAF9DAFAEAFBFAF66
:1023000024972CAD3DAD4EAD5FADBC01CD010E941B
:10231000989D68966CAF7DAF8EAF9FAF6897209108
:10232000F30B3091F40B4091F50B5091F60B2C967A
:102330002CAF3DAF4EAF5FAF2C9728962CAD3DAD87
:102340004EAD5FAD28972C966CAD7DAD8EAD9FAD3B
:102350002C970E94979D6B017C018091F70B9091C7
:10236000F80BA091F90BB091FA0B60968CAF9DAF72
:10237000AEAFBFAF609768962CAD3DAD4EAD5FADD3
:102380006897BC01CD010E94979D4B015C01209193
:102390000B0C30910C0C40910D0C50910E0C6C9666
:1023A0002CAF3DAF4EAF5FAF6C976091FB0B709160
:1023B000FC0B8091FD0B9091FE0B0E94979D6CABE6
:1023C0007DAB8EAB9FABA70196016CA57DA58EA5BD
:1023D0009FA50E94D3992B013C01A501940168A9F6
:1023E00079A98AA99BA90E94D3999B01AC01C30139
:1023F000B2010E94989D2B013C01A50194016CA59E
:102400007DA58EA59FA50E94D3994B015C01A701D4
:10241000960168A979A98AA99BA90E94D3999B01D1
:10242000AC01C501B4010E94979DA30192010E94D5
:102430000B9E6B017C0120E030E0A9010E946E99A7
:1024400087FF0AC02BED3FE049EC50E4C701B6011D
:102450000E94989D6B017C0132E02316310451F4F7
:102460002BED3FE049EC50E4C701B6010E94979D77
:102470006B017C0120E030E0A901C701B6010E9498
:102480006E99811126C02C962CAD3DAD4EAD5FAD41
:102490002C9768AD79AD8AAD9BAD0E946E99811184
:1024A00018C060962CAD3DAD4EAD5FAD60972496E3
:1024B0006CAD7DAD8EAD9FAD24970E946E9981115C
:1024C00008C00BEDC02E0FE0D02E09ECE02E00E48A
:1024D000F02EA701960164966CAD7DAD8EAD9FADDB
:1024E00064970E94D3994B015C0120E030E0A90180
:1024F0006CA97DA98EA99FA90E946E998823D9F005
:10250000A5019401C501B4010E94D3994B015C015E
:102510002CA93DA94EA95FA9CA01B9010E94D3996E
:102520009B01AC01C501B4010E94989D0E9403A0CB
:102530004B015C010DC020E030E0A901C501B401F0
:102540000E94BE9F87FF04C0B7FAB094B7F8B0945A
:102550002FE632E143E85AE3C501B4010E946E99C7
:1025600087FF02C00C94A024C501B4010E940D9FF6
:102570000E94E19E22967FAF6EAF2297672B31F4C7
:1025800081E090E022969FAF8EAF229740900F0C93
:102590005090100C6090110C7090120C2296AEAD01
:1025A000BFAD2297BD0180E090E00E9472994B017F
:1025B0005C019B01AC01C701B6010E94749E68AF2B
:1025C00079AF8AAF9BAFA50194016CA97DA98EA9B3
:1025D0009FA90E94749E64966CAF7DAF8EAF9FAF33
:1025E0006497A30192016091FF0B7091000C8091A0
:1025F000010C9091020C0E94979DA50194010E94EC
:10260000749EA0966CAF7DAF8EAF9FAFA09728ADA4
:1026100039AD4AAD5BADCA01B9010E94D39920E042
:1026200030E040E05FE30E94D3999B01AC0160E0A1
:1026300070E080E89FE30E94979D2C966CAF7DAF81
:102640008EAF9FAF2C976C962CAD3DAD4EAD5FAD70
:102650006C9729873A874B875C874D865E866F86A5
:10266000788A6091280270912902072E000C880B4D
:10267000990B0E9474992091240230912502409177
:102680002602509127020E94D3992AE037ED43E2B7
:102690005CE30E94D39968A779A78AA79BA70E94A9
:1026A0008E459B01AC0128533F4F4F4F5F4F6096C3
:1026B0002CAF3DAF4EAF5FAF60974CA45DA46EA44E
:1026C0007FA422242394312C39E13CAB22964EADD9
:1026D0005FAD22974215530509F41BC10E94D180BA
:1026E0000E948E45DC01CB0160962CAD3DAD4EAD18
:1026F0005FAD6097821B930BA40BB50BB7FD11C0A8
:102700000E948E459B01AC0128533F4F4F4F5F4FB6
:1027100060962CAF3DAF4EAF5FAF609780E00E94F8
:10272000DB703CA931503CAB332309F441C028A9EC
:1027300039A94AA95BA92C966CAD7DAD8EAD9FAD34
:102740002C970E94D3996B017C019201A30168AD83
:1027500079AD8AAD9BAD0E94D399A70196010E94E5
:10276000989D7B018C019201A3012C966CAD7DADEF
:102770008EAD9FAD2C970E94D3994B015C0128A987
:1027800039A94AA95BA968AD79AD8AAD9BAD0E9414
:10279000D3999B01AC01C501B4010E94979D2B0107
:1027A0003C01C701D80188AB99ABAAABBBAB4DC00C
:1027B000B10180E090E00E94729928AD39AD4AAD38
:1027C0005BAD0E94D3994B015C010E94719E6B012D
:1027D0007C01C501B4010E94F99F4B015C01A70176
:1027E00096016CA57DA58EA59FA50E94D3992B016E
:1027F0003C012CAD3DAD4EAD5FADC501B4010E94B5
:10280000D399A30192010E94989D2B013C01A5013F
:1028100094016CA57DA58EA59FA50E94D3994B011F
:102820005C012CAD3DAD4EAD5FADC701B6010E9460
:10283000D3999B01AC01C501B4010E94979D68AB7F
:1028400079AB8AAB9BAB49E14CAB9201A3012896D3
:102850006CAD7DAD8EAD9FAD28970E94989D69832C
:102860007A838B839C8328A939A94AA95BA9689696
:102870006CAD7DAD8EAD9FAD68970E94989D6D83C8
:102880007E838F83988764962CAD3DAD4EAD5FAD52
:10289000649769857A858B859C850E94989D698758
:1028A0007A878B879C87A0962CAD3DAD4EAD5FADF2
:1028B000A0976D857E858F8598890E94989D6D87EC
:1028C0007E878F87988B80912302882321F0CE0109
:1028D00001960E94F66EE090D70B18A219A21AA2D8
:1028E0001BA2CE0180966C018E01085D1F4F9E01D8
:1028F000235F3F4FAE01475F5F4FBE016B5F7F4F6E
:102900004F970E946659882321F09FEF291A390AB0
:10291000DDCEE090D70B1CA21DA21EA21FA2DE01DD
:1029200094966D018E01085D1F4F2FEF3BE04BEF3A
:102930005BE067EF7BE083EF9BE00E94665980E1FC
:10294000E3EFFBE0A3E0BCE001900D928A95E1F794
:102950000C94A0240E94D854F80184918F010F5F39
:102960001F4F8111F7CFE1EFF1E084918F010F5FED
:102970001F4F882311F40C94A0240E94D854F8010E
:10298000F4CF80E50E94B254882329F00E94F653C8
:102990006B017C0103C0C12CD12C760183E50E9420
:1029A000B254882361F00E94365420E030E04AE7B8
:1029B00054E40E94D3990E94E19E6B017C010E9425
:1029C0009C3C0E948E45C60ED71EE81EF91E0E9432
:1029D0008E45DC01CB018C199D09AE09BF09B7FDFD
:1029E00002C00C94A02480E00E94DB70F0CF0E9413
:1029F0000A6781110C94A02480E090E0A0E4B0E488
:102A000089839A83AB83BC838D839E83AF83B8878E
:102A100080E090E0A0E2B1E489879A87AB87BC8729
:102A200080E50E94B254882319F00E94065401C028
:102A300060E068A3BE016F5F7F4FCE0180960E9469
:102A4000533F0C94A024809199038770873011F034
:102A50000C94AA248FE40E94B254882341F00E946F
:102A60002754882311F40C94AA240C94A0248FE4F6
:102A70000E94695481110C94A0240C94AA241092F1
:102A800006030C94A024909306030C94A0240E94A7
:102A900036542B013C01133049F0F601208131817D
:102AA000428153810E94979D2B013C01ACA5BDA59D
:102AB0002D913D914D915C91C301B2010E94979D72
:102AC0004B015C012DEB37E346E855EB0E94BE9FBE
:102AD00087FD20C02DEB37E346E855E3C501B4017F
:102AE0000E946E991816B4F01F5FB4E0EB0EF11C53
:102AF000ECA5FDA53496FDA7ECA7F4E0CF0ED11C04
:102B0000143039F1D1018D911D010E94B2548823F6
:102B100059F3BDCF133051F440920F0C5092100C6A
:102B20006092110C7092120C01E0DECFA5019401AD
:102B3000F70160817181828193810E94989DD70104
:102B40006D937D938D939C931397812F0E943153A6
:102B5000CBCF002321F08FE09CE00E94C0660E9452
:102B600068360C94A0240E948A7A0C94A024809148
:102B70006111909162118237910511F40C94CF1D6F
:102B80000CF0D5C08B34910509F449C50CF066C032
:102B90008831910509F497C2A4F58231910509F4B1
:102BA00033C7B4F497FF02C00C94572482309105C8
:102BB0000CF4AAC1419711F00C9457245F988A989D
:102BC0008091080181708093060112980C94A024D2
:102BD0008531910509F45CC23CF4449711F00C94E2
:102BE0005724E6E1F2E016C28631910509F454C299
:102BF000479711F00C945724E0915F11F091601108
:102C000055C28D31910511F40C94A024C4F48A317D
:102C1000910509F48FC20CF47FC28B31910509F440
:102C200097C24C9711F00C94572440E060E08091DB
:102C30005F11909160110E94C88C0C94A0248F3178
:102C4000910509F405C40CF41BC38032910509F405
:102C5000B3C38A9709F4AFC40C94572488369105FE
:102C600009F4E9C4ECF58235910509F4C6C6FCF413
:102C70008D34910509F4DBC40CF4D5C4813591057C
:102C800011F00C9457240E94FE7D0E94DA3C1092B1
:102C9000140610921306109216061092150668EE8E
:102CA00073E080E090E00E94E4450C94A024843519
:102CB000910509F4A9C60CF4A3C68535910509F45C
:102CC000D6C68C35910511F00C94572490E4C92E8A
:102CD00092E0D92E2DE0E22E2BE0F22E10E0E0C69D
:102CE0008D36910509F4A9C58CF48A36910509F44D
:102CF000C4C50CF460C58B36910509F4E5C58C3666
:102D0000910511F40C94A0240C9457248F3691054E
:102D100009F4D1C40CF4BCC48037910511F40C94AF
:102D2000A0248137910509F419C50C9457248D3DD1
:102D3000910511F40C94CC210CF064C08B399105F1
:102D400009F454C534F58737910511F40C94B61E77
:102D50007CF48537910511F40C94A0240CF0B9C7CC
:102D60008337910511F00C945724EBEDF3E056C72F
:102D70008937910511F40C94BF1E0CF4FAC78D37F6
:102D8000910509F4B9C58C38910509F45AC50C941C
:102D900057248C3C910511F40C944E1F04F5883C8B
:102DA000910509F4F1C74CF48E3B910511F00C9498
:102DB00057240E9432370C94A024893C910511F4C9
:102DC0000C94141F8B3C910511F00C945724A0E433
:102DD000EA2EA2E0FA2E07EE15E00C943E1F8E3C80
:102DE000910511F40C942E2014F40C94C31F833D10
:102DF000910509F485C08C3D910511F40C94BF2117
:102E00000C945724843F21E0920711F40C947F2303
:102E10000CF03FC08F3241E0940711F40C9463230F
:102E2000DCF48232A1E09A0711F40C9464223CF4A1
:102E3000823E910511F40C943B220C9457248D3260
:102E4000E1E09E0711F40C946F228E32914011F450
:102E50000C940F230C945724803921E0920711F42D
:102E60000C947C234CF48336914011F00C9457243D
:102E7000EAE0FEE10C9469238A3951E0950711F4E8
:102E80000C94A0248C3A914011F40C9451200C9491
:102E900057248835B2E09B0711F40C94B823B4F49E
:102EA000863FF1E09F0711F40C94852314F40C94F1
:102EB0008223873F31E0930711F40C948823883FE5
:102EC000914011F40C9494230C9457248B3853E0C4
:102ED000950711F40C94A0243CF48B35924011F426
:102EE0000C94BB230C945724803AE3E09E0709F42A
:102EF000A2C2873E934011F40C9444240C945724AE
:102F0000E6E0FDE10C94EC2000915F11109160115E
:102F100080E50E94B254882361F00E94F6536B0151
:102F20007C01BB24B394672B682B692B31F4B12C43
:102F300004C0B12CC12CD12C760183E50E94B2547F
:102F4000882311F40C945B250E94365420E030E075
:102F50004AE754E40E94D3990E94E19E6B017C01F0
:102F6000B1100BC0672B682B692B39F401151105C3
:102F700021F0D8018C91811102C0B12C02C0BB2478
:102F8000B3940E949C3CBB20C1F0E6E0FDE184913B
:102F90005F01BFEFAB1ABB0A882321F00E94D8540F
:102FA000F501F5CFF80181918F01882319F00E9476
:102FB000D854F8CF8AE00E94D85483E08093EC0B79
:102FC00081E08093EB0BC114D104E104F104B1F072
:102FD0000E948E45C60ED71EE81EF91E0E948E4521
:102FE000DC01CB018C199D09AE09BF09B7FF0EC0EA
:102FF0008091EB0B81110C94602508C08091EB0B44
:10300000882321F080E00E94DB70F8CF1092EB0B58
:103010000C94A02484918F010F5F1F4F882321F00F
:103020000E94D854F801F6CF1092351188EE9EE038
:103030000E94D3698BE1E8EEFEE0DE011596019077
:103040000D928A95E1F78091E60E9091E70E9C83B0
:103050008B8380ED92E09A83898340E050E0BE014B
:103060006F5F7F4F80E090E00E94188ACE0101964A
:103070000E948A70E7E0F2E084918F010F5F1F4F9A
:10308000882311F40C94A0240E94D854F801F4CFA2
:103090000E94397B0C94A0241092B80E1092B90EA5
:1030A0000C94A024803209F4108231968081811121
:1030B000F9CF40E061E080915F11909160110E9432
:1030C000C88C0C94A02480E090E0A8E4B2E489834A
:1030D0009A83AB83BC8318A219A21AA21BA21CA2BA
:1030E0001DA21EA21FA280914011882351F0AE01A3
:1030F0004F5F5F4FBE01605E7F4FCE0184960E949E
:103100001D798091B90E882319F081E08093B80E63
:103110000E9483260C94A0241092B80E0E94A72629
:1031200087E292E09093AB038093AA030E948D53B1
:103130000C94A0248091B90E882311F40C94A0243F
:1031400083E50E94B25481110C9465250C94A0244F
:1031500083E40E946954882309F450C0E9E5F2E051
:1031600084918F010F5F1F4F882321F00E94D85454
:10317000F801F6CF80918310811103C0ECE2F2E0F8
:1031800012C0BE016F5F7F4F80E890E10E949B6894
:103190008E010F5F1F4FD8018D918D01882349F15A
:1031A0000E94D854F8CF84918F010F5F1F4F88235E
:1031B00001F10E94D854F801F6CF67EDC62E62E007
:1031C000D62EE12CF12C20E080910C0B90E00E2CFF
:1031D00002C0959587950A94E2F780FD9CC23FEF67
:1031E000E31AF30A42E0C40ED11C55E0E516F104DF
:1031F00059F78AE00E94D8540C94A0248091B90E0B
:10320000882339F08091B80E882319F0E6E3F2E0C4
:1032100003C0E8E4F2E028C084918F010F5F1F4FE4
:10322000882321F00E94D854F801F6CF6091311123
:103230007091321180913311909134114AE00E94C3
:1032400058578FE20E94D85460912D1170912E1121
:1032500080912F11909130114AE00E9458578AE0D6
:103260000E94D8540C94A02484918F010F5F1F4FAB
:10327000882311F40C94A0240E94D854F801F4CFB0
:103280008091B90E882311F40C94A02480E890E179
:103290000E94C88780E890E10E9476681092B70E7D
:1032A0001092B60E8091B90E882311F40C94A024CC
:1032B00000915F1110916011109240111092B80EA0
:1032C00080918310882321F080E890E10E94766845
:1032D000B801CE0180960E94DA8B8C01892B11F403
:1032E0000C94A02468A179A16115710511F06C5F9F
:1032F0007F4F19821C8222E0A801CE0101960E9414
:10330000026E811102C0F12C14C0CE0101960E9400
:1033100089898823C1F361E0CE0101960E947F680C
:10332000009789F325EEFC0120831C820E947185A1
:10333000F82ECE0101960E94BE54F11003C0E6E7BC
:10334000F2E022C0E8E6F2E084917F012FEFE21A7A
:10335000F20A882321F00E94D854F701F5CFD80152
:103360008D918D01882319F00E94D854F8CF8AE0FE
:103370000E94D854109231111092321110923311D0
:10338000109234110C94A02484917F01BFEFEB1AAA
:10339000FB0A882321F00E94D854F701F5CFF801E9
:1033A00081918F01882319F00E94D854F8CF8EE2C2
:1033B0000E94D8540C94A0248091B80E81110E94D0
:1033C0009C3C8091B90E882311F40C94A02480E5D4
:1033D0000E94B254882319F00E94275403C080E54C
:1033E0000E946954182F482F61E080915F119091DD
:1033F00060110E94C88C83E50E94B254882381F03A
:103400000E940654AB01BC0140933111509332111C
:10341000609333117093341180E890E10E948C67BF
:103420008091B90E882319F081E08093B80E1111B4
:103430000C94A0246DCE80915F119091601121E0D9
:103440002093B70E40E060E00E94C88C0C94A0244A
:103450000E94C2837B018C0120E831E541E050E00D
:103460000E945C9DC9016DE671E00E945CA04B0169
:103470005C01C801B70120E13EE040E050E00E945D
:103480005C9DCA01B90128E130E040E050E00E94B3
:103490005C9D762E672EC62ED72E7CE3272E312CF0
:1034A000412C512CC801B701A20191010E945C9DE1
:1034B000F62EE72ECA01B901A20191010E945C9D7E
:1034C000CB018E010F5F1F4F81149104D1F0EF9259
:1034D000FF927F936F936F927F92BF92AF929F9272
:1034E0008F9286EB92E09F938F931F930F930E948E
:1034F00040990FB6F894DEBF0FBECDBFE6E0FDE108
:1035000045C0A114B10489F0EF92FF927F936F93AD
:103510006F927F92BF92AF9286EA92E09F938F93D1
:103520001F930F930E944099E4CFCD2879F0EF923A
:10353000FF927F936F936F927F928AE992E09F93BD
:103540008F931F930F930E944099D3CF892B69F0DB
:10355000EF92FF927F936F9382E992E09F938F9314
:103560001F930F930E944099C4CFEF92FF928EE871
:1035700092E09F938F931F930F930E9440990F9017
:103580000F900F900F900F900F90B8CF84917F0104
:10359000BFEFEB1AFB0A882321F00E94D854F701F1
:1035A000F5CFB8018AEC92E00E94AB2E8AE00E942F
:1035B000D8540C94A02483E50E94B254882311F4BB
:1035C0000C94A0240E941654E82E80E50E94B25468
:1035D000882339F00E941654182F87FF03C00C94DB
:1035E000A0241DE089E40E94B254882341F00E9487
:1035F000275481110C941826E6E1F5E00BC089E40C
:103600000E946954F6CF319625E0E334F20711F4B5
:103610000C94182684911813F6CF0C94B1250E94AF
:1036200083260C94A0240E94A7260C94A0240E9418
:10363000BC260C94A02488E690E00E94C357811118
:103640000C94A02480910C0B83FF02C00C94A02446
:1036500083E50E94B2548823B9F00E9436540E9438
:10366000DC9E70938F0360938E0380E00E94B27D96
:103670000E94365420E030E040EE50E40E946E9903
:10368000181614F00E94BC260E94C62E0C94A0248A
:103690008EE40E94B254882311F40C94A0240E945A
:1036A000065460933C1170933D1180933E119093AA
:1036B0003F110C94A02483E50E946954882359F09B
:1036C00083E50E94B254882319F00E94165401C069
:1036D00080E080930C0BE6E0FDE184918F010F5FA9
:1036E0001F4F811103C0E5EEF2E004C00E94D854E0
:1036F000F801F3CF84918F010F5F1F4F882321F0D2
:103700000E94D854F801F6CF80910C0B811155CD51
:10371000E1EEF2E018C0BB24B394B20E222319F0FC
:103720008CE20E94D854F60185919491FC01849119
:103730008F010F5F1F4F882321F00E94D854F8019A
:10374000F6CF2B2D4CCD84918F010F5F1F4F882317
:1037500009F44FCD0E94D854F801F5CF83E50E94BB
:10376000B254811103C0E6E0FDE10DC00E94165481
:103770008D3320F480932A020C94A0248CE3809350
:103780002A020C94A02484918F010F5F1F4F88237D
:1037900021F00E94D854F801F6CF40912A0250E05F
:1037A00060E070E08CEE92E00E94582E8AE00E9469
:1037B000D8540C94A02489E690E00E94C35781114C
:1037C00011C0E3EFF2E084918F010F5F1F4F882358
:1037D00021F00E94D854F801F6CF0E949C468AE05E
:1037E0000E94D8541092EC0B0C94342683E50E946E
:1037F000B254882311F40C94A0240E941654182F5C
:103800008D3308F01CE31093BE0B0E948E456B01B4
:103810007C01212F30E0A8EEB3E00E94889DC60E07
:10382000D71EE81EF91EC092BA0BD092BB0BE092D5
:10383000BC0BF092BD0B0C94A0240E94CF380C94CA
:10384000A02480910C0B83FF02C00C94A02483E57C
:103850000E94B254882311F40C94A0240E94365480
:103860000E94DC9E6639710514F066E970E0709381
:103870008D0360938C030C94A02480E50E94B254C5
:10388000882341F00E941654182F823010F00C94B7
:10389000A02401C010E083E50E94B254882319F0EF
:1038A0000E94065402C06FEF70E0E12FF0E06F3F1E
:1038B000710510F06FEF70E0EE0FFF1FED5EF94F36
:1038C000718360830C94A02480E50E94B254882305
:1038D00041F00E9406546230710510F00C94A0244F
:1038E00002C060E070E0660F771FFB01ED5EF94FEC
:1038F000118210820C94A0248CE40E9469548823C5
:1039000081F00E9436546B017C0120E030E0A90177
:103910000E94BE9F87FF0AC0F7FAF094F7F8F09470
:1039200005C0C12CD12CE12C30E4F32EF7FAF09431
:10393000F7F8F094CCA2DDA2EEA2FFA280E090E026
:10394000A0E4B0E489839A83AB83BC838D839E8398
:10395000AF83B88780E090E0A0E2B1E489879A87DE
:10396000AB87BC8788E50E94B254882379F088E54C
:103970000E94B254882319F00E94365403C060E0BC
:1039800070E0CB0169837A838B839C8389E50E94F5
:10399000B254882379F089E50E94B254882319F043
:1039A0000E94365403C060E070E0CB016D837E83DB
:1039B0008F8398878AE50E94B254882379F08AE53C
:1039C0000E94B254882319F00E94365403C060E06C
:1039D00070E0CB0169877A878B879C8718A219A230
:1039E0001AA21BA2AE01405E5F4FBE016F5F7F4F08
:1039F000CE0184960E94B974A3C710920503A0C794
:103A000081E0809305039CC783E50E94B25488231C
:103A100099F00E94365420E030E04AE754E40E94D6
:103A2000D3990E94E19E60932B0270932C028093A5
:103A30002D0290932E0284C788E50E94695481115B
:103A40000C94762589E50E94695481110C947625A1
:103A50008AE50E94695481110C94762585E40E94C0
:103A6000695481110C9476250E94DA3C69C783E57C
:103A70000E946954882309F463C70E94365420E0E9
:103A800030E04AE754E40E94D3990E94E19E60939B
:103A9000B60B7093B70B8093B80B9093B90B50C7CC
:103AA000D6018D916D010E946954882309F46DC07F
:103AB000133009F063C00E9436544B015C0120E0D2
:103AC00030E040EA51E40E946E9987FF4EC0A501A4
:103AD00094016091190B70911A0B80911B0B9091BE
:103AE0001C0B0E94749E2B013C019B01AC01609158
:103AF000C3057091C4058091C5059091C6050E94CB
:103B0000D3996093C3057093C4058093C5059093C2
:103B1000C605A30192016091F3057091F4058091AF
:103B2000F5059091F6050E94D3996093F305709383
:103B3000F4058093F5059093F6056091D305709197
:103B4000D4058091D5059091D6050E947299A30164
:103B500092010E94D3990E94E19E6093D3057093D5
:103B6000D4058093D5059093D6058092190B909239
:103B70001A0BA0921B0BB0921C0B07C00E9436546C
:103B8000F70160837183828393831F5FF4E0EF0EFC
:103B9000F11C143009F084CF0E942B30D1C60E9452
:103BA0009C3C83E50E94B254882311F40C94AF1519
:103BB0000E9406546230710511F00C94AF150E94FA
:103BC000F4768BE50E94D8546091A60B7091A70BF8
:103BD0008091A80B9091A90B42E00E941958409146
:103BE000AA0B5091AB0B6091AC0B7091AD0B89EFB0
:103BF00092E00E94752E4091AE0B5091AF0B6091F8
:103C0000B00B7091B10B86EF92E00E94752E8DE59E
:103C10000E94D8548AE00E94D85492C684918F01A1
:103C20000F5F1F4F882321F00E94D854F801F6CF70
:103C300060E08BEC93E00E94313661E084EC93E02D
:103C40000E94313661E089EB93E00E94313661E0F9
:103C500089EA93E00E94313660E080EA93E00E94B6
:103C6000313661E086E993E00E94313660E08CE80D
:103C700093E00E94313660E084E893E00E943136A0
:103C800060E086E793E00E94313660E088E693E0EA
:103C90000E94313660E089E593E00E94313660E0B1
:103CA0008BE493E00E94313660E085E393E00E946C
:103CB000313661E084E293E00E94313660E08FE0CB
:103CC00093E00E94313660E08CEF92E00E94313642
:103CD00037C600915F111091601183E0D12C40E054
:103CE0008150E9F0D8019C91292F2B7F2134C1F715
:103CF00011962C912133A1F7913421F0953421F4C0
:103D000041E002C0DD24D39498012E5F3F4F89012A
:103D10002F5F3F4FF80190819032C9F3E1CF4423E8
:103D200069F0E6E0FDE184917F012FEFE21AF20AEB
:103D3000882321F00E94D854F701F5CFDD2069F0E7
:103D4000EEE9F4E084917F013FEFE31AF30A882360
:103D500021F00E94D854F701F5CFD8018D918D0143
:103D6000882309F446CA0E94D854F7CF0E945240D3
:103D7000E7C581E08093980380939703E1C5109293
:103D8000980310929703DCC588EC90E00E94C3571B
:103D90008111D6C584E40E946954882309F441C086
:103DA0000E9436546B017C0111E020E030E0A90153
:103DB0000E946E99811101C010E010937B0320E0F6
:103DC00030E0A901C701B6010E946E99882349F12C
:103DD0000E943654E0918703B4E0EB9FF001112478
:103DE000E058FC4F608371838283938320E030E04E
:103DF000A901609180037091810380918203909169
:103E000083030E946E9981110CC080E090E0A0EEC7
:103E1000BFE38093800390938103A0938203B093C8
:103E200083030E94193D8CC5B0E4EB2EB2E0FB2E5B
:103E30000DE013E08DE1C82E83E0D82EF7018191CB
:103E40007F010E946954882351F00E9436540E94D9
:103E5000E19ED8016D937D938D939C9313970C5F96
:103E60001F4FC016D10651F70E94F62E69C50C5F90
:103E70001F4FB5E0073F1B0709F462C5F7018191A9
:103E80007F010E946954882391F30E943654D8011F
:103E90006D937D938D939C931397E9CF83E50E9457
:103EA000B2548823A1F00E9436546093DF057093CA
:103EB000E0058093E1059093E2056093DB05709344
:103EC000DC058093DD059093DE0510E001C011E074
:103ED00080E50E94B254882359F00E9436546093C2
:103EE000DF057093E0058093E1059093E20510E013
:103EF00082E50E94B254882359F00E9436546093A0
:103F0000E3057093E4058093E5059093E60510E0E2
:103F100084E50E94B254882359F00E94365460937D
:103F2000DB057093DC058093DD059093DE0508C505
:103F3000112309F405C54091DF055091E00560911A
:103F4000E1057091E20588EA94E00E94752E4091A7
:103F5000E3055091E4056091E5057091E60585EA79
:103F600094E00E94752E4091DB055091DC05609134
:103F7000DD057091DE0582EA94E00E94752E8AE0EC
:103F80000E94D854DDC481E50E946954882351F011
:103F90000E94F6536093F7057093F8058093F90536
:103FA0009093FA0583E50E946954882351F00E949A
:103FB000365460930F067093100680931106909309
:103FC000120684E50E946954882351F00E943654F9
:103FD00060930B0670930C0680930D0690930E066B
:103FE00088E50E946954882351F00E9436546093FA
:103FF000B7057093B8058093B9059093BA0589E524
:104000000E946954882351F00E9436546093BB0586
:104010007093BC058093BD059093BE058AE50E9410
:104020006954882351F00E9436546093BF05709301
:10403000C0058093C1059093C20585E40E94695430
:10404000882309F47DC40E9436546093C30570939D
:10405000C4058093C5059093C60572C4E0E4CE2ED6
:10406000E2E0DE2EFAE9EF2EF3E0FF2E10E0F6019B
:1040700081916F010E946954882359F00E9436543F
:10408000D7016D937D938D939C931397812F0E94FD
:1040900031531F5FB4E0EB0EF11C133041F70C9469
:1040A000AF150E940A6781114BC40EEF18E1E3E0DF
:1040B000FCE0FDA7ECA79E012F5F3F4F490177E58C
:1040C000A72E79E1B72E1901F801659175918591B7
:1040D0009491ACA5BDA5CD90DD90ED90FD90BDA7D0
:1040E000ACA7A70196010E94979D2B013C01F1010D
:1040F000608371838283938320E030E040EA51EC57
:104100000E94BE9F87FD0AC020E030E040EA51E4F3
:10411000C301B2010E946E9918162CF4F501849126
:1041200018160CF413C5D101CD90DD90ED90FD90E3
:104130001D0120E030E040EA51ECC701B6010E94C9
:10414000BE9F87FD0AC020E030E040EA51E4C7018D
:10415000B6010E946E991816D4F4EAE0FEE184914B
:104160008F010F5F1F4F811103C0E8EBF4E004C023
:104170000E94D854F801F3CF84918F010F5F1F4F35
:10418000882309F4DDC30E94D854F801F5CF0C5FF1
:104190001F4FBFEFAB1ABB0AEAE0F9E1E017F107E6
:1041A00009F092CF6AE9E62E63E0F62E10E0F40102
:1041B00081919191A191B1914F01F70181939193D7
:1041C000A193B1937F01812F0E9431531F5F133060
:1041D00071F70E946836B4C384918F010F5F1F4F3F
:1041E000882321F00E94D854F801F6CF83E50E947D
:1041F0006954882321F00E94275480932302EEEF14
:10420000F4E084918F010F5F1F4F882321F00E94FB
:10421000D854F801F6CF80912302882319F0E6EFF5
:10422000F4E002C0EAEFF4E084918F010F5F1F4FCA
:10423000811103C0EEEEF4E004C00E94D854F801EE
:10424000F3CF84918F010F5F1F4F882321F00E94CD
:10425000D854F801F6CF4090F6025090F7026090E3
:10426000F8027090F9022091CB0B3091CC0B409169
:10427000CD0B5091CE0BC301B2010E94989DAB01B2
:10428000BC018CEE94E00E94752E8090FA02909012
:10429000FB02A090FC02B090FD022091CF0B309168
:1042A000D00B4091D10B5091D20BC501B4010E94AB
:1042B000989DAB01BC0189EE94E00E94752EC090E0
:1042C000FE02D090FF02E0900003F09001032091E5
:1042D000D30B3091D40B4091D50B5091D60BC70125
:1042E000B6010E94989DAB01BC0186EE94E00E944D
:1042F000752EEEEDF4E084918F010F5F1F4F882340
:1043000021F00E94D854F801F6CF20912F0230916D
:1043100030024091310250913202C301B2010E9439
:10432000989DAB01BC018CED94E00E94752E20910C
:104330003302309134024091350250913602C5016A
:10434000B4010E94989DAB01BC0189ED94E00E94EC
:10435000752E2091370230913802409139025091E8
:104360003A02C701B6010E94989DAB01BC0186EDDF
:1043700094E00E94752E8AE00E94D854E1C283E541
:104380000E94B254882309F4DBC20E940654709341
:10439000290260932802D4C28DED90E00E94C35799
:1043A0008111CEC283E50E94B254811103C0E6E0C0
:1043B000FDE13BC00091870310E00E940654000F0E
:1043C000111FF801EB5EFD4F7183608380918703BD
:1043D00090E08C01000F111F000F111F9801235E48
:1043E0003D4F7901880F991FFC01EB5EFD4F608105
:1043F0007181072E000C880B990B0E9474992AE09A
:1044000037ED43E25CE30E94D399F801E458FC4F96
:1044100020813181428153810E94D399D7016D93CC
:104420007D938D939C9313978BC284918F010F5F23
:104430001F4F882321F00E94D854F801F6CF85E45D
:104440000E94D85480918703805D0E94D854E091E7
:104450008703F0E0EE0FFF1FEB5EFD4F608171817F
:104460008EE095E00E94922E85E20E94D8548AE068
:104470000E94D85465C280E50E946954882309F4DB
:104480005FC20E9406546B017C0183E50E94B25416
:10449000882321F00E9406548B0102C00FEF1FEF0A
:1044A000C8010196039708F04BC2D7FC49C28C2D76
:1044B000E6E1F5E09491891709F453C33196B5E02C
:1044C000E334FB07B9F750C38AE50E94B254811167
:1044D00074C383E50E94B25481116FC331C285E475
:1044E0000E94B254811110C080E50E946954882353
:1044F00091F00E9436546093400E7093410E809369
:10450000420E9093430E07C00E941654882361F315
:10451000EAE0FEE171C089E40E946954882381F0D9
:104520000E9436542CEA35EC47E25EE30E94D399B0
:1045300060933C0E70933D0E80933E0E90933F0E21
:1045400084E40E946954882381F00E9436542CEA46
:1045500035EC47E25EE30E94749E6093440E7093D4
:10456000450E8093460E9093470EE6E0FDE1849160
:104570008F010F5F1F4F882321F00E94D854F8014C
:10458000F6CF4091400E5091410E6091420E7091D5
:10459000430E8BE495E00E94752E2CEA35EC47E241
:1045A0005EE360913C0E70913D0E80913E0E9091C5
:1045B0003F0E0E94749EAB01BC0187E495E00E940F
:1045C000752E2CEA35EC47E25EE36091440E709163
:1045D000450E8091460E9091470E0E94D399AB01F3
:1045E000BC0183E495E00E94752E8AE00E94D854B5
:1045F000A7C10E94D854F80184918F010F5F1F4F0B
:104600008111F7CFEFE4F5E084918F010F5F1F4F29
:10461000882309F495C10E94D854F801F5CF83E5A9
:104620000E946954182F882371F00E9436540E940A
:10463000DC9E709322026093210221E0672B09F037
:1046400020E02093170680E50E946954882359F0E2
:104650002091210230912202232B11F00E94275435
:10466000809317066DC111116BC1E6E0FDE18491E5
:104670008F010F5F1F4F882321F00E94D854F8014B
:10468000F6CF80911706882319F064EE72E002C01D
:1046900067EE72E086E795E00E94AB2E6091210202
:1046A0007091220285E695E00E94922EE1E6F5E007
:1046B00084918F010F5F1F4F882309F441C10E942D
:1046C000D854F801F5CF0E9410323AC10E94D85454
:1046D000F80184918F010F5F1F4F8111F7CFE9E837
:1046E000F5E084918F010F5F1F4F882309F428C1E3
:1046F0000E94D854F801F5CF0E949C3C21C10E9431
:10470000F74C1EC10E94EB4C1BC10E94054418C10E
:1047100083E50E946954882321F00E94275491E088
:1047200089270E9481400CC181E080933A050E9454
:10473000404710923A05882309F402C1E6E0FDE102
:1047400084918F010F5F1F4F811103C0E8E9F5E0ED
:1047500004C00E94D854F801F3CF84918F010F5FF9
:104760001F4F882309F4ECC00E94D854F801F5CFFC
:104770000E945530E5C08BE592E00E94C35781113D
:10478000DFC085E50E9469548823D9F10091870331
:1047900010E00E9436546B017C0120E030E0A9015A
:1047A0000E94BE9F87FF04C0F7FAF094F7F8F094D8
:1047B000000F111F000F111FF801ED58FC4FC082B0
:1047C000D182E282F38200918703E4E00E9F8001B0
:1047D00011240D581C4F20E030E048E453E4D80188
:1047E0006D917D918D919C910E94BE9F18164CF405
:1047F00080E090E0A8E4B3E4F80180839183A28391
:10480000B3838CE40E946954882309F499C0009111
:10481000870310E00E9436546B017C0120E030E0F9
:10482000A9010E94BE9F87FF04C0F7FAF094F7F831
:10483000F094000F111F000F111FF801E958FC4FF1
:10484000C082D182E282F38200918703F4E00F9F5D
:104850008001112409581C4F20E030E048E453E463
:10486000D8016D917D918D919C910E94BE9F1816EB
:104870000CF066C080E090E0A8E4B3E4F801808327
:104880009183A283B3835CC081E080933C0283E583
:104890000E94B254882339F00E942754811150C0DD
:1048A0000E942D774DC083E50E946954F7CF0E9486
:1048B0008A7A46C0F09061110E949C3CFF2029F149
:1048C000E6E0FDE184918F010F5F1F4F882321F007
:1048D0000E94D854F801F6CF84E50E94D8546F2D79
:1048E00070E080E090E04AE00E94585780E20E9429
:1048F000D854E5EBF5E084918F010F5F1F4F8823BB
:10490000F9F00E94D854F801F6CF1092D70BE6E0E8
:10491000FDE184918F010F5F1F4F882321F00E94DA
:10492000D854F801F6CF6091D70B70E083EA95E098
:104930000E94922E8AE00E94D85402C00E948A7A75
:104940001092EC0B0E9410778FC10E94E73A0E94F0
:10495000E775F6CF0E949C3C80912402909125023D
:10496000A0912602B09127028093090390930A0335
:10497000A0930B03B0930C0380912802909129021D
:10498000909308038093070384E690E090932902B4
:104990008093280211E01093980388E50E946954DF
:1049A000B82E89E50E946954082F8AE50E9469544F
:1049B000A82EB11004C0011104C01A2505C00111B0
:1049C00002C010E001C01A2D0E94C45482E50E946A
:1049D000B254882361F00E9436546B017C0120E0C0
:1049E00030E0A9010E946E99882371F106C0C12CA4
:1049F000D12CB0EAEB2EB0E4FB2E111104C0B110A3
:104A000002C0002391F1C092FB0BD092FC0BE0920C
:104A1000FD0BF092FE0BA701960160910B0C7091BB
:104A20000C0C80910D0C90910E0C0E946E9987FFDA
:104A30000BC019821A821B821C82BE016F5F7F4FDE
:104A40008BEF9BE00E941353111105C0B11003C0FE
:104A5000011106C00AC080E00E94886F1123C1F3D3
:104A600081E00E94886F111102C0AA2019F082E033
:104A70000E94886F0E94EC53809197038093980363
:104A80008091090390910A03A0910B03B0910C034C
:104A90008093240290932502A0932602B0932702CC
:104AA0008091070390910803909329028093280234
:104AB0000E94683645CFB1100C94BD170C94B61700
:104AC00080E00E94DB700C94EE170E940654AB014C
:104AD000BC014093311150933211609333117093A4
:104AE000341180E890E10E948C672ACF0E949C3CA0
:104AF00088E50E946954882331F05F9A8091990378
:104B00008E7F8093990389E50E946954882331F050
:104B10008A9A809199038D7F809399038AE50E94F8
:104B20006954882359F080910801809581708093A1
:104B30000601809199038B7F8093990385E40E94FD
:104B40006954882309F4FCCE129AFACEF7FAF0944D
:104B5000F7F8F094D101CD92DD92ED92FC9213978B
:104B6000E2CA0E94773AECCE0E949C3CBC2C60E0EA
:104B70008C2D0E94FD7A0F3FBFEF1B0759F48C2D3F
:104B80000E94A77A31E020E0892B09F030E0032F62
:104B9000122F05C00130110569F401E010E08B2DE2
:104BA0000E94A77A8017910709F4CACE80E00E947C
:104BB000DB70F5CF00E010E0F2CF0E94365420E029
:104BC00030E040E050EC0E946E9987FD12C00E94D8
:104BD000365420E030E040E050E40E94BE9F1816BA
:104BE0001CF00E94365409C060E070E080E090E460
:104BF00004C060E070E080E090EC2091990322FF17
:104C00009FCE00914F0E1091500E2091150B3091B8
:104C1000160B4091170B5091180B0E94D3990E94CC
:104C2000DC9E600F711F7093500E60934F0E88CE04
:104C300061E0812F0E94FD7A6E2D812F0E94CF7A34
:104C4000F12CB701812F0E947A7C173029F4F09261
:104C50001606E092150674CE193009F071CEF09266
:104C60001406E09213066CCEC15ADF4F0FB6F894CB
:104C7000DEBF0FBECDBFDF91CF911F910F91FF908F
:104C8000EF90DF90CF90BF90AF909F908F907F90EC
:104C90006F905F904F903F902F9008958091900E6D
:104CA0009091910E891B8F7019F480E090E0089527
:104CB00090918D0E992351F0833030F48FEF890F4E
:104CC00019F080938D0EF1CF10928D0EE091910E20
:104CD0008FE4E89FF0011124E45EF94F808180FDAC
:104CE000E4CF8091910E8F5F8F7080938E0E9091A4
:104CF000910E80918F0E981304C080918E0E809338
:104D00008F0ECF01089580913B0E8130F1F08230FB
:104D100059F40E94C28360932F0E7093300E8093DB
:104D2000310E9093320E02C00E94F68381E0809390
:104D30003B0E0E948E456093330E7093340E809329
:104D4000350E9093360E81E0089580E008958091AD
:104D50003B0E813079F482E080933B0E0E948E45B9
:104D60006093370E7093380E8093390E90933A0EFD
:104D700081E0089580E0089580913B0E815082305B
:104D800010F080E0089510923B0E0E948E456093D3
:104D9000370E7093380E8093390E90933A0E81E05F
:104DA000089590916F00292F227091FF05C0909176
:104DB0006F009D7F90936F0034E0839FC0011124AA
:104DC000FC01E955FA4F4081518162817381FC01F8
:104DD000E05EFC4F408351836283738381E0809364
:104DE0001F03222329F080916F00826080936F005F
:104DF0000895BC01209171033091720340917103B9
:104E0000509172032417350711F09A01F7CF81E012
:104E10002617370709F080E008950F930FB70F9317
:104E200000916E000F930B7F00936E0000916F0056
:104E30000D7F00936F000F930BB70F930CB70F927A
:104E40001F922F933F934F935F936F937F938F9313
:104E50009F93AF93BF93EF93FF93112456D0FF918D
:104E6000EF91BF91AF919F918F917F916F915F91E2
:104E70004F913F912F911F900F900CBF0F910BBF3F
:104E80000F910260F89400936F000F9100936E00F1
:104E90000F910FBF0F91189580911D0380FF03C0E4
:104EA000899A8FEF02C0899881E080930C028091EB
:104EB0001D0381FF03C08F9A8FEF02C08F9881E09E
:104EC00080930D0280911D0382FF07C080910B012A
:104ED0008270809309018FEF07C080910B0180954C
:104EE00082708093090181E080930E0280911D03FE
:104EF00083FF03C0169A8FEF02C0169881E080935B
:104F00000F0200000000000008952F923F924F9280
:104F10005F926F927F928F929F92AF92BF92CF9249
:104F2000DF92EF92FF921F93CF93DF9300D01F92F7
:104F3000CDB7DEB7F8948FEF9FEF90938900809301
:104F400088001AE01A821982B3EE2B2EBDE03B2EA8
:104F5000789480916D0390916E03A0916F03B0914E
:104F60007003892B8A2B8B2B09F0D7C180911F03EB
:104F70008823D1F010921F038091710390917203E6
:104F8000892B91F010921E031092720310927103FC
:104F90009091900E8091910E981731F08091910E22
:104FA0008F5F8F708093910E809171039091720347
:104FB000892B09F4B2C18090690390906A03A09094
:104FC0006B03B0906C034091650350916603609150
:104FD000670370916803C0905803D12CE12CF12C29
:104FE000DB01CA0188199909AA09BB09C816D906A3
:104FF000EA06FB0610F4D701C601382F880D991D6B
:10500000AA1DBB1D8093690390936A03A0936B0351
:10501000B0936C0380918400909185004E96C0906F
:105020004003D0904103E0904203F090430340914D
:1050300030035091310360913203709133034C0D72
:105040005D1D6E1D7F1D409340035093410360938F
:1050500042037093430377FD1CC0889AC090A70554
:10506000D090A805E090A905F090AA0540910C0207
:10507000042E000C550B660B770B4C0D5D1D6E1D41
:105080007F1D4093A7055093A8056093A9057093D1
:10509000AA05C0904403D0904503E0904603F090E9
:1050A000470340913403509135036091360370916A
:1050B00037034C0D5D1D6E1D7F1D409344035093BF
:1050C0004503609346037093470377FD1CC08E9A97
:1050D000C090AB05D090AC05E090AD05F090AE056A
:1050E00040910D02042E000C550B660B770B4C0DF6
:1050F0005D1D6E1D7F1D4093AB055093AC05609305
:10510000AD057093AE05C0904803D0904903E09080
:105110004A03F0904B03409138035091390360915A
:105120003A0370913B034C0D5D1D6E1D7F1D409336
:1051300048035093490360934A0370934B0377FDF0
:1051400021C020910B012095287020930901C09067
:10515000AF05D090B005E090B105F090B205409158
:105160000E02042E000C550B660B770B4C0D5D1DCB
:105170006E1D7F1D4093AF055093B0056093B10540
:105180007093B205C0904C03D0904D03E0904E0355
:10519000F0904F0340913C0350913D0360913E03DA
:1051A00070913F034C0D5D1D6E1D7F1D40934C03A0
:1051B00050934D0360934E0370934F0377FD1CC0D3
:1051C000149AC090B305D090B405E090B505F09066
:1051D000B60540910F02042E000C550B660B770BA1
:1051E0004C0D5D1D6E1D7F1D4093B3055093B4059E
:1051F0006093B5057093B605409184005091850089
:1052000048175907C8F340914003509141036091FA
:1052100042037091430377FD15C0C0902C03D090DA
:105220002D03E0902E03F0902F034C195D096E09B9
:105230007F0940934003509341036093420370936E
:10524000430388984091440350914503609146037D
:105250007091470377FD15C0C0902C03D0902D03AB
:10526000E0902E03F0902F034C195D096E097F0921
:105270004093440350934503609346037093470360
:105280008E98409148035091490360914A03709170
:105290004B0377FD19C0C0902C03D0902D03E090F4
:1052A0002E03F0902F034C195D096E097F0940937E
:1052B00048035093490360934A0370934B03209132
:1052C0000B0128702093090140914C0350914D032C
:1052D00060914E0370914F0377FD15C0C0902C0371
:1052E000D0902D03E0902E03F0902F034C195D0910
:1052F0006E097F0940934C0350934D0360934E0316
:1053000070934F031498315041F0409184005091B4
:10531000850048175907C8F381CE80916D0390919D
:105320006E03A0916F03B0917003892B8A2B8B2B96
:1053300009F030C3E0917103F0917203309709F4E2
:10534000B0C48091690390916A03A0916B03B091FE
:105350006C034091650350916603609167037091FF
:10536000680384179507A607B707D0F010921E03AD
:1053700010927203109271039091900E8091910E91
:10538000981709F48EC48091910E8F5F8F7080936F
:10539000910EA0EDCA2EA7E0DA2EE12CF12C4EC121
:1053A00040916103509162036091630370916403C3
:1053B000481759076A077B0708F467C040915D03E7
:1053C00050915E0360915F037091600382A993A97D
:1053D000A4A9B5A9FF24499FE12C5A9F90016A9F77
:1053E000300D699F200D311D4A9FE00C211D3F1D8E
:1053F000599FE00C211D3F1D689FE00C211D3F1DA2
:10540000589FE10C2F1D3F1DE6942F1D3F1DB49F9B
:10541000200D311DB59F300D112483AD94ADA5AD88
:10542000B6AD820F931FA11DB11D809359039093B8
:105430005A03A0935B03B0935C03C7A8D0ACE1AC64
:10544000F2ACC816D906EA06FB0640F4C09259032E
:10545000D0925A03E0925B03F0925C038090590370
:1054600090905A03A0905B03B0905C0387EC9DE0A2
:1054700021E0FC01C590D590E590F490C814D904C2
:10548000EA04FB0408F4D7C2E1C2409154035091EE
:1054900055036091560370915703481759076A07DF
:1054A0007B0708F063C04091500350915103609115
:1054B00052037091530382A993A9A4A9B5A9FF240B
:1054C000499FE12C5A9F90016A9F300D699F200DE2
:1054D000311D4A9FE00C211D3F1D599FE00C211DED
:1054E0003F1D689FE00C211D3F1D589FE10C2F1DA3
:1054F0003F1DE6942F1D3F1DB49F200D311DB59F0C
:10550000300D1124C901A0E0B0E0809059039090C3
:105510005A03A0905B03B0905C03FF968815990531
:10552000AA05BB0580F4C080D180E280F380881A90
:10553000990AAA0ABB0A8C149D04AE04BF0438F46D
:105540004601570104C080809180A280B38087EC1F
:105550009DE021E0FC01C590D590E590F490C81441
:10556000D904EA04FB0408F4D9C2E3C28091110211
:1055700090911202A0911302B0911402B7FF56C08D
:1055800087A990ADA1ADB2AD27EC3DE041E0F901B6
:10559000C590D590E590F490C816D906EA06FB06AA
:1055A00058F4B695A79597958795440F2C5F3F4F74
:1055B0005DE0233E350759F740935803803291054B
:1055C000A105B10508F440C38097A109B10981156F
:1055D00028E09207A105B10508F413C344E0949FA5
:1055E000900111242953364FF90132964591549177
:1055F000EE27859FB001849F610D7E1F06946E1F6C
:105600007E1F1124CB01A0E0B0E0F9014591549137
:1056100060E070E0481B590B6A0B7B0B4093110252
:10562000509312026093130270931402C0901102FF
:10563000D0901202E0901302F09014028091710356
:1056400090917203892B09F09DC128DB909372031E
:1056500080937103892B09F495C180917103909116
:1056600072039C838B83DC018C9183FF42C055962F
:105670008D919D910D90BC91A02D8093A705909345
:10568000A805A093A905B093AA05EB81FC81818DA3
:10569000928DA38DB48D8093AB059093AC05A093B0
:1056A000AD05B093AE05858D968DA78DB0A1809385
:1056B000AF059093B005A093B105B093B20581A159
:1056C00092A1A3A1B4A18093B3059093B405A09334
:1056D000B505B093B6059091900E8091910E9817F4
:1056E00009F4B3CF8091910E8F5F8F708093910EEC
:1056F000ACCFAB81BC8155964D905D906D907C9008
:10570000589781E0411451046104710409F480E068
:10571000EB81FC81C18CD28CE38CF48CC114D1045C
:10572000E104F10409F08260AB81BC815D964D918A
:105730005D916D917C9190974115510561057105C1
:1057400009F0846080931E0310925003109251035D
:10575000109252031092530310925D0310925E0355
:1057600010925F0310926003EB81FC8185A196A1EA
:10577000A7A1B0A58093650390936603A0936703E8
:10578000B0936803882499245401881A990AAA0AB4
:10579000BB0A80924C0390924D03A0924E03B092AC
:1057A0004F038092480390924903A0924A03B0921B
:1057B0004B038092440390924503A0924603B0921B
:1057C00047038092400390924103A0924203B0921B
:1057D0004303440C551C661C771C409230035092C6
:1057E00031036092320370923303CC0CDD1CEE1C4B
:1057F000FF1CC0923403D0923503E0923603F0923E
:105800003703440F551F661F771F4093380350938B
:10581000390360933A0370933B0341A152A163A102
:1058200074A1440F551F661F771F40933C0350938C
:105830003D0360933E0370933F03880F991FAA1F97
:10584000BB1F80932C0390932D03A0932E03B09342
:105850002F031092690310926A0310926B03109247
:105860006C0382A593A5A4A5B5A58093610390932D
:105870006203A0936303B093640386A597A5A0A9D0
:10588000B1A98093540390935503A0935603B0930A
:10589000570341A556A980911D0358130AC0809152
:1058A000100290E0242F042E000C330B2817390728
:1058B00029F050931D0340931002EEDA8091980373
:1058C00081110E94FA3F2FEF3FEFA90120931102AF
:1058D000309312024093130250931402EB81FC8127
:1058E00083AD94ADA5ADB6AD8093590390935A03A3
:1058F000A0935B03B0935C0327EC3DE041E0F9012A
:10590000C590D590E590F490C816D906EA06FB0636
:1059100050F4B695A79597958795440F2C5F3F4F08
:105920002216330661F74093580380329105A10592
:10593000B10508F4B1C18097A109B1098115F8E05A
:105940009F07A105B10508F484C144E0949F90012C
:1059500011242953364FF901329645915491EE277F
:10596000859FB001849F610D7E1F06946E1F7E1F70
:105970001124F901C590D490E12CF12CC61AD70A54
:10598000E108F108C0926D03D0926E03E0926F03BC
:10599000F092700380916D0390916E03A0916F035C
:1059A000B0917003AC01BD010097E1E0AE07B10515
:1059B00020F04FEF5FEF60E070E0841B950BA60BCB
:1059C000B70B80936D0390936E03A0936F03B09316
:1059D0007003F89480918400909185004096115056
:1059E00059F029813A81240F351F3A8329832817DA
:1059F000390708F4ADCA02C09A83898349815A8164
:105A0000509389004093880078940F900F900F90E6
:105A10000F90DF91CF911F91FF90EF90DF90CF908B
:105A2000BF90AF909F908F907F906F905F904F90BE
:105A30003F902F900895B694A79497948794220F3F
:105A40000496ADE0833E9A0709F013CD20935803E6
:105A5000B0E28B169104A104B10408F459C020E20D
:105A6000821A9108A108B108811438E09306A104B4
:105A7000B104F8F0A4E09A9EC00111248953964F16
:105A8000FC01329625913491F82DEE27F39FD00139
:105A9000F29FA10DBE1F0694AE1FBE1F1124FC0174
:105AA000C590D490E12CF12CCA1ADB0AE108F10868
:105AB00022C0D501C401B695A79597958795FC019D
:105AC000EC7FCF0189539A4FFC01C590D490FC0123
:105AD000329625913491E82DE770E29FC001E39F53
